:100000000C942A000C943F000C943F000C943F0089
:100010000C943F000C943F000C943F000C943F0064
:100020000C943F000C943F000C943F000C943F0054
:100030000C943F000C943F000C943F000C943F0044
:100040000C943F000C943F000C943F000C943F0034
:100050000C943F0011241FBECFE5D8E0DEBFCDBF1A
:1000600011E0A0E6B0E0E0E2F8E202C005900D92F7
:10007000AE3AB107D9F70E948C0D0C940E140C9473
:100080000000EF92FF920F931F937B018C0120E001
:1000900030E040E05FE40E941D0488238CF0C8013A
:1000A000B70120E030E040E05FE40E94B9010E9427
:1000B000DB049B01AC01205030404040504806C05A
:1000C000C801B7010E94DB049B01AC01B901CA0160
:1000D0001F910F91FF90EF900895A0E0B0E0E3E74B
:1000E000F0E00C94D713DC012B01FA019C919230C3
:1000F00008F439C1EB018881823008F433C19430AF
:1001000069F4843009F02FC111969C91119789816F
:10011000981709F428C1A6E8B0E025C1843009F495
:1001200021C18230A9F4923009F01DC19A01AD01BC
:1001300088E0EA010990AE01E90109929E0181502F
:10014000C1F7E201898111969C918923818308C1BD
:10015000923009F407C112962D903C901397EB0151
:100160008A819B811496AD90BD90CD90DC901797BD
:10017000EC80FD800E811F819101281B390BB90194
:1001800037FF04C066277727621B730B6032710547
:100190000CF061C0121613066CF537014801062EEB
:1001A00004C096948794779467940A94D2F721E0D8
:1001B00030E040E050E004C0220F331F441F551FC1
:1001C0006A95D2F721503040404050402E213F21C7
:1001D00040235123211531054105510521F021E02E
:1001E00030E040E050E079018A01E628F72808294C
:1001F00019293CC0232BD1F1260E371E35014601AB
:10020000062E04C096948794779467940A94D2F744
:1002100021E030E040E050E004C0220F331F441FD3
:10022000551F6A95D2F721503040404050402A2156
:100230003B214C215D21211531054105510521F05E
:1002400021E030E040E050E059016A01A628B728DB
:10025000C828D9280BC0821593052CF01C01AA24AC
:10026000BB24650103C0EE24FF24870111969C91F5
:10027000D20111968C91981709F445C0992339F051
:10028000A80197012A193B094C095D0906C0A6017E
:1002900095012E193F09400B510B57FD08C01182E3
:1002A0003382228224833583468357831DC081E0B5
:1002B00081833382228288279927DC01821B930B5A
:1002C000A40BB50B84839583A683B7830DC0220F3F
:1002D000331F441F551F24833583468357838281F0
:1002E000938101979383828324813581468157814D
:1002F000DA01C9010197A109B1098F5F9F4FAF4F83
:10030000BF4328F30BC0918333822282EA0CFB1C8B
:100310000C1D1D1DE482F5820683178383E0808314
:10032000248135814681578157FF1AC0C901AA2708
:1003300097FDA095BA2F81709070A070B0705695FF
:10034000479537952795822B932BA42BB52B848328
:100350009583A683B7838281938101969383828359
:10036000DF0101C0D201CD01CDB7DEB7E2E10C94CF
:10037000F313A0E2B0E0EFEBF1E00C94E313698338
:100380007A838B839C832D833E834F835887E9E058
:10039000EE2EF12CEC0EFD1ECE010196B7010E944F
:1003A00053068E010F5E1F4FCE010596B8010E94C5
:1003B00053068A8991E089278A8BC701B801AE016B
:1003C000475E5F4F0E946D000E947E05A096E6E0AA
:1003D0000C94FF13A0E2B0E0E0EFF1E00C94E31323
:1003E00069837A838B839C832D833E834F835887D5
:1003F000F9E0EF2EF12CEC0EFD1ECE010196B701B7
:100400000E9453068E010F5E1F4FCE010596B80164
:100410000E945306C701B801AE01475E5F4F0E94BC
:100420006D000E947E05A096E6E00C94FF13A0E20A
:10043000B0E0EDE1F2E00C94D71369837A838B830B
:100440009C832D833E834F835887CE010196BE0146
:10045000675F7F4F0E945306CE010596BE016F5E17
:100460007F4F0E9453069985923088F089898230A7
:10047000C8F0943019F4823051F404C0843029F467
:10048000923081F486E890E0C6C0923049F420E0D2
:100490009A858A89981321E02A87CE010996BBC0E4
:1004A000823049F420E09A858A89981321E02A8BCA
:1004B000CE014196B0C02D843E844F8458886D880B
:1004C0007E888F88988CEE24FF248701AA24BB2481
:1004D000650140E050E060E070E0E0E0F0E0C10184
:1004E00081709070892BE9F0E60CF71C081D191D2E
:1004F0009A01AB012A0D3B1D4C1D5D1D80E090E073
:10050000A0E0B0E0E614F7040805190520F481E046
:1005100090E0A0E0B0E0BA01A901480F591F6A1F9E
:100520007B1FAA0CBB1CCC1CDD1C97FE08C081E005
:1005300090E0A0E0B0E0A82AB92ACA2ADB2A3196C6
:10054000E032F10549F0660C771C881C991C569422
:10055000479437942794C3CFFA85EA892B893C893D
:100560008B859C85280F391F2E5F3F4F17C0CA010E
:1005700081709070892B61F016950795F794E79438
:1005800080E090E0A0E0B0E8E82AF92A0A2B1B2BD3
:1005900076956795579547952F5F3F4F77FDE7CF46
:1005A0000CC0440F551F661F771F17FD4160EE0CEE
:1005B000FF1C001F111F21503040403090E05907B0
:1005C00090E0690790E4790760F32B8F3C8FDB01A3
:1005D000CA018F779070A070B07080349105A1052A
:1005E000B10561F447FD0AC0E114F10401051105EC
:1005F00029F0405C5F4F6F4F7F4F40781A8EFE1797
:1006000011F081E08A8F4D8F5E8F6F8F78A383E02A
:10061000898FCE0149960E947E05A096E2E10C9456
:10062000F313A8E1B0E0E7E1F3E00C94DF13698392
:100630007A838B839C832D833E834F835887B9E0D5
:10064000EB2EF12CEC0EFD1ECE010196B7010E949F
:1006500053068E010F5E1F4FCE010596B8010E9412
:1006600053062985223008F47EC03989323010F4CF
:10067000B8017CC08A859A8989278A87243011F03D
:10068000223031F4231709F06EC066E870E06EC0C6
:10069000343039F41D861E861F86188A1C861B86F8
:1006A00004C0323021F484E08987B7015FC02B8514
:1006B0003C858B899C89281B390B3C872B87ED84D3
:1006C000FE840F851889AD88BE88CF88D88CEA143F
:1006D000FB040C051D0540F4EE0CFF1C001F111F50
:1006E000215030403C872B8720E030E040E050E054
:1006F00080E090E0A0E0B0E460E070E0EA14FB0489
:100700000C051D0540F0282B392B4A2B5B2BEA18D2
:10071000FB080C091D09B695A79597958795EE0CD2
:10072000FF1C001F111F6F5F7F4F6F31710531F785
:10073000DA01C9018F779070A070B0708034910594
:10074000A105B10561F427FD0AC0E114F10401051A
:10075000110529F0205C3F4F4F4F5F4F20782D87C8
:100760003E874F87588BBE01675F7F4FCB010E944A
:100770007E056896EAE00C94FB13A8E1B0E0E3EC98
:10078000F3E00C94E31369837A838B839C832D833A
:100790003E834F83588789E0E82EF12CEC0EFD1E36
:1007A000CE010196B7010E9453068E010F5E1F4FC6
:1007B000CE010596B8010E9453068985823040F02B
:1007C0008989823028F0C701B8010E94CB0601C098
:1007D00081E06896E6E00C94FF13A8E1B0E0E3EF57
:1007E000F3E00C94E31369837A838B839C832D83DA
:1007F0003E834F83588789E0E82EF12CEC0EFD1ED6
:10080000CE010196B7010E9453068E010F5E1F4F65
:10081000CE010596B8010E9453068985823040F0CA
:100820008989823028F0C701B8010E94CB0601C037
:100830008FEF6896E6E00C94FF13A8E1B0E0E3E2E6
:10084000F4E00C94E31369837A838B839C832D8378
:100850003E834F83588789E0E82EF12CEC0EFD1E75
:10086000CE010196B7010E9453068E010F5E1F4F05
:10087000CE010596B8010E9453068985823040F06A
:100880008989823028F0C701B8010E94CB0601C0D7
:100890008FEF6896E6E00C94FF13A8E1B0E0E3E583
:1008A000F4E00C94E31369837A838B839C832D8318
:1008B0003E834F83588789E0E82EF12CEC0EFD1E15
:1008C000CE010196B7010E9453068E010F5E1F4FA5
:1008D000CE010596B8010E9453068985823040F00A
:1008E0008989823028F0C701B8010E94CB0601C077
:1008F00081E06896E6E00C94FF13A8E0B0E0E3E83E
:10090000F4E00C94E0139B01AC0183E08983DA01ED
:10091000C9018827B7FD83959927AA27BB27B82E39
:10092000211531054105510519F482E089833AC04A
:100930008823A9F0203080E0380780E0480780E86D
:10094000580729F460E070E080E09FEC30C0EE24AE
:10095000FF248701E21AF30A040B150B02C0790188
:100960008A018EE1C82ED12CDC82CB82ED82FE8200
:100970000F831887C801B7010E942F050197181629
:10098000190684F4082E04C0EE0CFF1C001F111F72
:100990000A94D2F7ED82FE820F831887C81AD90A0B
:1009A000DC82CB82BA82CE0101960E947E05289617
:1009B000E9E00C94FC13ACE0B0E0E1EEF4E00C9460
:1009C000E71369837A838B839C83CE010196BE01F2
:1009D0006B5F7F4F0E9453068D81823061F18230C0
:1009E00050F1843021F48E81882351F12EC02F8163
:1009F000388537FD20C06E812F3131051CF066230C
:100A0000F9F023C08EE190E0821B930B29853A8593
:100A10004B855C8504C056954795379527958A95F3
:100A2000D2F76623B1F050954095309521953F4F10
:100A30004F4F5F4F0EC020E030E040E050E009C073
:100A40002FEF3FEF4FEF5FE704C020E030E040E0E2
:100A500050E8B901CA012C96E2E00C940314EF921D
:100A6000FF920F931F937B018C0180E0E81680E0DA
:100A7000F80681E0080780E0180788F48FEFE81691
:100A8000F1040105110531F028F088E090E0A0E0C4
:100A9000B0E017C080E090E0A0E0B0E012C080E0DD
:100AA000E81680E0F80680E0080781E0180728F0E3
:100AB00088E190E0A0E0B0E004C080E190E0A0E038
:100AC000B0E020E230E040E050E0281B390B4A0B58
:100AD0005B0B04C016950795F794E7948A95D2F7B7
:100AE000F701E257FF4F8081281B31094109510965
:100AF000C9011F910F91FF90EF900895DF92EF923F
:100B0000FF920F931F93FC01E480F580068117810B
:100B1000D1808081823048F480E090E0A0E1B0E0B4
:100B2000E82AF92A0A2B1B2BA5C0843009F49FC0A0
:100B3000823021F4EE24FF24870105C0E114F10482
:100B40000105110519F4E0E0F0E096C062817381BF
:100B50009FEF623879070CF05BC022E83FEF261B5D
:100B6000370B2A3131052CF020E030E040E050E036
:100B70002AC0B801A701022E04C076956795579543
:100B800047950A94D2F781E090E0A0E0B0E004C07D
:100B9000880F991FAA1FBB1F2A95D2F70197A10999
:100BA000B1098E219F21A023B1230097A105B10592
:100BB00021F081E090E0A0E0B0E09A01AB01282BA9
:100BC000392B4A2B5B2BDA01C9018F779070A0700B
:100BD000B07080349105A105B10539F427FF09C033
:100BE000205C3F4F4F4F5F4F04C0215C3F4F4F4F42
:100BF0005F4FE0E0F0E02030A0E03A07A0E04A07D5
:100C0000A0E45A0710F0E1E0F0E079018A0127C082
:100C10006038710564F5FB01E158FF4FD801C70149
:100C20008F779070A070B07080349105A105B105E8
:100C300039F4E7FE0DC080E490E0A0E0B0E004C02D
:100C40008FE390E0A0E0B0E0E80EF91E0A1F1B1F42
:100C500017FF05C016950795F794E794319687E03E
:100C600016950795F794E7948A95D1F705C0EE2479
:100C7000FF248701EFEFF0E06E2F679566276795F9
:100C8000902F9F77D794DD24D7948E2F8695492F68
:100C9000462B582F5D29B701CA011F910F91FF9074
:100CA000EF90DF900895FC01DB01408151812281AA
:100CB000622F6F7770E0221F2227221F9381892FD6
:100CC000880F822B282F30E0991F9927991F1196A2
:100CD0009C93119721153105A9F541155105610521
:100CE000710511F482E037C082E89FEF13969C9360
:100CF0008E9312979A01AB0167E0220F331F441FB6
:100D0000551F6A95D1F783E08C930DC0220F331FD6
:100D1000441F551F12968D919C911397019713961E
:100D20009C938E931297203080E0380780E048072C
:100D300080E4580758F314962D933D934D935C939C
:100D4000179708952F3F310579F441155105610535
:100D5000710519F484E08C93089564FF03C081E069
:100D60008C9312C01C9210C02F57304013963C93A6
:100D70002E93129783E08C9387E0440F551F661FD4
:100D8000771F8A95D1F7706414964D935D936D9398
:100D90007C93179708951F93DC01FB019C9192307F
:100DA00008F447C08081823008F443C0943051F485
:100DB00011961C91843099F58181682F70E0611B38
:100DC00071093FC0843021F0923031F48230B9F1A2
:100DD0008181882389F12DC011961C911197823051
:100DE000F1F081811817D9F412962D913C91139747
:100DF000828193818217930794F028173907BCF0FA
:100E000014968D919D910D90BC91A02D24813581DA
:100E100046815781281739074A075B0718F41123C1
:100E200041F00AC082179307A407B50740F41123C5
:100E300019F061E070E005C06FEF7FEF02C060E085
:100E400070E0CB011F910895DF93CF93CDB7DEB74C
:100E50002F970FB6F894DEBF0FBECDBF8F8781E00E
:100E600060E04FEF0E94A10A81E061E040E00E9453
:100E7000A10A82E06F850E94E50B81E062E04FEFFE
:100E80000E94A10A80E090E0A0E0B0E48B879C87FC
:100E9000AD87BE876B857C858D859E8520E030E0A3
:100EA0004AEF54E40E941702DC01CB018F8398873C
:100EB000A987BA876F81788589859A8520E030E097
:100EC00040E85FE30E944D0488232CF481E090E029
:100ED0009E838D833FC06F81788589859A8520E0C8
:100EE0003FEF4FE757E40E94ED0318164CF56B8572
:100EF0007C858D859E8520E030E040E251E40E94B3
:100F00001702DC01CB01BC01CD010E944100DC01D4
:100F1000CB019E838D830FC088EC90E09C838B83F4
:100F20008B819C810197F1F79C838B838D819E81BE
:100F300001979E838D838D819E81009769F714C0F0
:100F40006F81788589859A850E944100DC01CB01FB
:100F50009E838D838D819E819A83898389819A81E5
:100F60000197F1F79A83898381E062E040E00E9473
:100F7000A10A2F960FB6F894DEBF0FBECDBFCF915A
:100F8000DF910895DF93CF93CDB7DEB72F970FB6DC
:100F9000F894DEBF0FBECDBF8F8781E060E040E0F8
:100FA0000E94A10A81E061E040E00E94A10A82E083
:100FB0006F850E94E50B81E062E04FEF0E94A10A7D
:100FC00080E090E0A0E0B0E48B879C87AD87BE878F
:100FD0006B857C858D859E8520E030E04AEF54E46A
:100FE0000E941702DC01CB018F839887A987BA87FB
:100FF0006F81788589859A8520E030E040E85FE35D
:101000000E944D0488232CF481E090E09E838D8320
:101010003FC06F81788589859A8520E03FEF4FE753
:1010200057E40E94ED0318164CF56B857C858D8581
:101030009E8520E030E040E251E40E941702DC018E
:10104000CB01BC01CD010E944100DC01CB019E839C
:101050008D830FC088EC90E09C838B838B819C8177
:101060000197F1F79C838B838D819E8101979E83ED
:101070008D838D819E81009769F714C06F8178857B
:1010800089859A850E944100DC01CB019E838D8376
:101090008D819E819A83898389819A810197F1F755
:1010A0009A83898381E062E040E00E94A10A2F9642
:1010B0000FB6F894DEBF0FBECDBFCF91DF9108957C
:1010C000DF93CF93CDB7DEB72E970FB6F894DEBF80
:1010D0000FBECDBF80E090E0ACE1B2E48B879C878F
:1010E000AD87BE876B857C858D859E8520E030E051
:1010F0004AEF54E40E941702DC01CB018F839887EA
:10110000A987BA876F81788589859A8520E030E044
:1011100040E85FE30E944D0488232CF481E090E0D6
:101120009E838D833FC06F81788589859A8520E075
:101130003FEF4FE757E40E94ED0318164CF56B851F
:101140007C858D859E8520E030E040E251E40E9460
:101150001702DC01CB01BC01CD010E944100DC0182
:10116000CB019E838D830FC088EC90E09C838B83A2
:101170008B819C810197F1F79C838B838D819E816C
:1011800001979E838D838D819E81009769F714C09E
:101190006F81788589859A850E944100DC01CB01A9
:1011A0009E838D838D819E819A83898389819A8193
:1011B0000197F1F79A83898388E30E94C2078FE041
:1011C0000E94C20781E00E94C2072E960FB6F894D3
:1011D000DEBF0FBECDBFCF91DF910895DF93CF93D8
:1011E00000D00F92CDB7DEB79B838A8319820EC0E1
:1011F0008981282F30E08A819B81FC01E20FF31F57
:1012000080810E94240789818F5F89838981282FAB
:1012100030E08A819B81FC01E20FF31F80818823EB
:1012200039F70F900F900F90CF91DF910895DF93D2
:10123000CF9300D00F92CDB7DEB78A836B838B81BB
:10124000882319F48A81898303C08A81805C898319
:1012500089818068898389810E94C2070F900F90DD
:101260000F90CF91DF910895DF93CF93CDB7DEB785
:1012700081E00E94C207CF91DF910895DF93CF9361
:10128000CDB7DEB729970FB6F894DEBF0FBECDBF3E
:101290008D838D81882349F481E090E0A0E0B0E067
:1012A0008E839F83A887B9871CC08D8181500E943F
:1012B0003E09DC01CB012AE030E040E050E0BC0117
:1012C000CD010E947B13DC01CB0189839A83AB8320
:1012D000BC8389819A81AB81BC818E839F83A887DF
:1012E000B9878E819F81A885B985BC01CD012996DA
:1012F0000FB6F894DEBF0FBECDBFCF91DF9108953A
:10130000DF93CF930F92CDB7DEB7898389810E9497
:101310003E09DC01CB01BC01CD010E947D049B0193
:10132000AC0160E070E080E89FE30E941103DC0103
:10133000CB01BC01CD010F90CF91DF910895DF93D8
:10134000CF93CDB7DEB727970FB6F894DEBF0FBEA9
:10135000CDBF89836A834B838B81882309F075C055
:101360008981282F30E03F832E838E819F818230B8
:10137000910561F12E813F812330310534F48E8156
:101380009F818130910569F0D3C02E813F81233048
:10139000310589F18E819F818430910509F440C027
:1013A000C7C0AAE3B0E0EAE3F0E08081482F8A8179
:1013B000282F30E081E090E0022E02C0880F991FB4
:1013C0000A94E2F7809584238C93B2C0A7E3B0E03F
:1013D000E7E3F0E08081482F8A81282F30E081E028
:1013E00090E0022E02C0880F991F0A94E2F78095C0
:1013F00084238C939DC0A4E3B0E0E4E3F0E080811B
:10140000482F8A81282F30E081E090E0022E02C030
:10141000880F991F0A94E2F7809584238C9388C0E3
:10142000A1E3B0E0E1E3F0E08081482F8A81282F3A
:1014300030E081E090E0022E02C0880F991F0A94EC
:10144000E2F7809584238C9373C08B81813009F0FF
:101450006FC08981282F30E03D832C838C819D8152
:101460008230910551F12C813D812330310534F4D6
:101470008C819D818130910561F05AC02C813D8124
:101480002330310571F18C819D8184309105E9F122
:101490004FC0AAE3B0E0EAE3F0E08081482F8A8100
:1014A000282F30E081E090E0022E02C0880F991FC3
:1014B0000A94E2F7842B8C933BC0A7E3B0E0E7E308
:1014C000F0E08081482F8A81282F30E081E090E091
:1014D000022E02C0880F991F0A94E2F7842B8C9386
:1014E00027C0A4E3B0E0E4E3F0E08081482F8A81E4
:1014F000282F30E081E090E0022E02C0880F991F73
:101500000A94E2F7842B8C9313C0A1E3B0E0E1E3EB
:10151000F0E08081482F8A81282F30E081E090E040
:10152000022E02C0880F991F0A94E2F7842B8C9335
:1015300027960FB6F894DEBF0FBECDBFCF91DF91D7
:101540000895DF93CF93CDB7DEB727970FB6F89402
:10155000DEBF0FBECDBF89836A834B838B81882317
:1015600009F075C08981282F30E03F832E838E815A
:101570009F818230910561F12E813F8123303105B9
:1015800034F48E819F818130910569F0D3C02E8122
:101590003F812330310589F18E819F81843091050F
:1015A00009F440C0C7C0ABE3B0E0EBE3F0E08081FA
:1015B000482F8A81282F30E081E090E0022E02C07F
:1015C000880F991F0A94E2F7809584238C93B2C008
:1015D000A8E3B0E0E8E3F0E08081482F8A81282F7B
:1015E00030E081E090E0022E02C0880F991F0A943B
:1015F000E2F7809584238C939DC0A5E3B0E0E5E3FA
:10160000F0E08081482F8A81282F30E081E090E04F
:10161000022E02C0880F991F0A94E2F78095842356
:101620008C9388C0A2E3B0E0E2E3F0E08081482F31
:101630008A81282F30E081E090E0022E02C0880FDE
:10164000991F0A94E2F7809584238C9373C08B8151
:101650008F3F09F06FC08981282F30E03D832C83B4
:101660008C819D818230910551F12C813D81233007
:10167000310534F48C819D818130910561F05AC02F
:101680002C813D812330310571F18C819D81843025
:101690009105E9F14FC0ABE3B0E0EBE3F0E080810E
:1016A000482F8A81282F30E081E090E0022E02C08E
:1016B000880F991F0A94E2F7842B8C933BC0A8E310
:1016C000B0E0E8E3F0E08081482F8A81282F30E005
:1016D00081E090E0022E02C0880F991F0A94E2F781
:1016E000842B8C9327C0A5E3B0E0E5E3F0E0808194
:1016F000482F8A81282F30E081E090E0022E02C03E
:10170000880F991F0A94E2F7842B8C9313C0A2E3ED
:10171000B0E0E2E3F0E08081482F8A81282F30E0BA
:1017200081E090E0022E02C0880F991F0A94E2F730
:10173000842B8C9327960FB6F894DEBF0FBECDBFD7
:10174000CF91DF910895DF93CF9300D000D0CDB734
:10175000DEB789836A838981282F30E03C832B831D
:101760008B819C8182309105D9F02B813C81233083
:10177000310534F48B819C818130910561F01EC06C
:101780002B813C812330310581F08B819C81843019
:10179000910581F013C0EAE3F0E08A8180830EC0F6
:1017A000E7E3F0E08A81808309C0E4E3F0E08A8126
:1017B000808304C0E1E3F0E08A8180830F900F9082
:1017C0000F900F90CF91DF910895DF93CF9300D0CA
:1017D00000D0CDB7DEB789836A838981282F30E0B6
:1017E0003C832B838B819C8182309105D9F02B81A6
:1017F0003C812330310534F48B819C81813091050B
:1018000061F01EC02B813C812330310581F08B813A
:101810009C818430910581F013C0EBE3F0E08A8174
:1018200080830EC0E8E3F0E08A81808309C0E5E3AD
:10183000F0E08A81808304C0E2E3F0E08A81808363
:101840000F900F900F900F90CF91DF910895DF933D
:10185000CF9300D000D00F92CDB7DEB78A836B83D1
:101860008A81282F30E03D832C834C815D8142307A
:10187000510541F18C819D818330910534F42C8197
:101880003D812130310561F052C04C815D81433092
:10189000510551F18C819D8184309105B9F147C08A
:1018A000E9E3F0E08081282F30E08B81882F90E001
:1018B000A90102C0559547958A95E2F7CA01817042
:1018C000898335C0E6E3F0E08081282F30E08B810A
:1018D000882F90E0A90102C0559547958A95E2F7B7
:1018E000CA018170898323C0E3E3F0E08081282F5F
:1018F00030E08B81882F90E0A90102C05595479573
:101900008A95E2F7CA018170898311C0E0E3F0E0B3
:101910008081282F30E08B81882F90E0A90102C0C0
:10192000559547958A95E2F7CA0181708983898127
:101930000F900F900F900F900F90CF91DF9108951F
:10194000DF93CF93CDB7DEB7A6970FB6F894DEBF7F
:101950000FBECDBFCE0142969BA38AA3EEE8F1E075
:10196000FDA3ECA3F0E1FEA3ECA1FDA100808CA1FE
:101970009DA101969DA38CA3EAA1FBA100828AA14F
:101980009BA101969BA38AA39EA191509EA3EEA129
:10199000EE2351F787E1898B188AAFC084E068890C
:1019A00040E00E94A10A1F869CC08F85982F9C5FF3
:1019B00084E0692F0E94270C882309F08FC08F854F
:1019C000282F30E08889482F50E0220F331F220F44
:1019D000331FCE010196820F931F840F951FFC01C8
:1019E00071968081898B80E090E0A0E0B0E48B87E5
:1019F0009C87AD87BE876B857C858D859E8520E025
:101A000030E04AEF54E40E941702DC01CB018F83DF
:101A10009887A987BA876F81788589859A8520E01C
:101A200030E040E85FE30E944D0488232CF481E01D
:101A300090E09E838D833FC06F81788589859A85EC
:101A400020E03FEF4FE757E40E94ED0318164CF5F6
:101A50006B857C858D859E8520E030E040E251E4F9
:101A60000E941702DC01CB01BC01CD010E944100A4
:101A7000DC01CB019E838D830FC088EC90E09C83BA
:101A80008B838B819C810197F1F79C838B838D8164
:101A90009E8101979E838D838D819E81009769F73A
:101AA00014C06F81788589859A850E944100DC0188
:101AB000CB019E838D838D819E819A8389838981C9
:101AC0009A810197F1F79A8389838F85982F9C5F7C
:101AD00084E0692F0E94270C8823B9F38F858F5FDC
:101AE0008F878F85843008F460CF84E068894FEF5A
:101AF0000E94A10A88898F5F888B8889843008F4C6
:101B00004DCF89898150A6960FB6F894DEBF0FBEDF
:101B1000CDBFCF91DF910895EF92FF920F931F9366
:101B2000DF93CF93CDB7DEB7C258D0400FB6F8944D
:101B3000DEBF0FBECDBF84E06FE00E94A30B84E048
:101B40006FEF0E94E50B82E06FEF0E94A30B81E034
:101B50006FEF0E94A30B0E946008FE01ED5BFF4F38
:101B60001082FE01EE5BFF4F1082FE01FE9680E0C8
:101B700090E0A0E0B0E080839183A283B38380E013
:101B800090E0A0E0B0E08AAF9BAFACAFBDAF1EAAC3
:101B90001FAA18AE19AE1AAA1BAA1CAA1DAA1EA615
:101BA0001FA618AA19AA1AA61BA61CA61DA61EA225
:101BB00080E090E0A0E0B0E08AA39BA3ACA3BDA32B
:101BC00019A218A2CE018C5B9F4F20E1FC01DF011E
:101BD000322F1D923A95E9F7CE018C5A9F4F20E1A2
:101BE000FC01DF01322F1D923A95E9F7CE018C59A5
:101BF0009F4FC258DF4F99838883CE57D0408EE9DC
:101C000091E0C058DF4F99838883C058D04090E15D
:101C1000CE57DF4F9883C258D040C058DF4FA881BD
:101C2000B981C058D0400C90C058DF4FE881F9818D
:101C3000C058D0403196C058DF4FF983E883C05870
:101C4000D040C258DF4FA881B981CE57D0400C9206
:101C5000C258DF4FE881F981CE57D0403196C25843
:101C6000DF4FF983E883CE57D040CE57DF4FF8815E
:101C7000C258D040F150CE57DF4FF883C258D04001
:101C8000CE57DF4F2881C258D040222331F6FE01C3
:101C9000EC58FF4F80E38083FE01EC58FF4F80E358
:101CA0008183FE01EC58FF4F80E38283FE01EC58F4
:101CB000FF4F80E383831F8E18A61FA21E8E0FC0C6
:101CC0008E8D282F30E0CE018C599F4FFC01E20F02
:101CD000F31F80810E9424078E8D8F5F8E8F8E8DE3
:101CE000803170F303C00E94A00C8EA38EA18D30B2
:101CF00049F08EA18C3031F08EA18E3019F08EA17A
:101D00008F3089F70E9434098EA1A82FB0E0EE969B
:101D1000BFAFAEAFEE97EE96EEADFFADEE97ED3006
:101D2000F10539F1EE962EAD3FADEE972E3031052F
:101D300044F4EE968EAD9FADEE978C309105F1F0A8
:101D400021C0EE96AEADBFADEE97AE30B10561F0FD
:101D5000EE96EEADFFADEE97EF30F10599F480E62B
:101D600090E00E94EE080EC085E690E00E94EE082A
:101D700009C08BE690E00E94EE0804C084E790E082
:101D80000E94EE0880E090E0AAEFB3E4898F9A8F7A
:101D9000AB8FBC8F698D7A8D8B8D9C8D20E030E070
:101DA0004AEF54E40E941702DC01CB018D8B9E8B1D
:101DB000AF8BB88F6D897E898F89988D20E030E058
:101DC00040E85FE30E944D0488232CF481E090E01A
:101DD0009C8B8B8B3FC06D897E898F89988D20E08D
:101DE0003FEF4FE757E40E94ED0318164CF5698D5D
:101DF0007A8D8B8D9C8D20E030E040E251E40E9492
:101E00001702DC01CB01BC01CD010E944100DC01C5
:101E1000CB019C8B8B8B0FC088EC90E09A8B898BCD
:101E200089899A890197F1F79A8B898B8B899C898B
:101E300001979C8B8B8B8B899C89009769F714C0C9
:101E40006D897E898F89988D0E944100DC01CB01CC
:101E50009C8B8B8B8B899C89988B8F878F8598899E
:101E60000197F1F7988B8F870E94340957C00E9421
:101E7000A00C88A388A18E3071F4FE01ED5BFF4FAA
:101E80008081882341F48DE20E942407FE01ED5BEE
:101E9000FF4F81E0808388A18A3031F48EE20E9476
:101EA00024078F8D8F5F8F8F8F8D8130E1F488A114
:101EB0008B30A1F188A18A3088F588A18A3071F130
:101EC0008FA1282F30E0CE018C5A9F4FFC01E20FEA
:101ED000F31F88A1808388A1805D0E9424078FA1C1
:101EE0008F5F8FA31BC088A18B30C1F088A18A307F
:101EF000A8F488A18C3091F088A5282F30E0CE017D
:101F00008C5B9F4FFC01E20FF31F88A1808388A1A7
:101F1000805D0E94240788A58F5F88A788A18B30E9
:101F200009F0A5CF1D8E32C08D8D282F30E0CE0157
:101F30008C5B9F4FFC01E20FF31F8081E82EFF2492
:101F400000E010E088A581500E943E099B01AC0191
:101F5000C801B7010E947B13DC01CB01BC01CD019C
:101F60000E947D049B01AC016AA17BA18CA19DA173
:101F70000E94EA01DC01CB018AA39BA3ACA3BDA311
:101F80008D8D8F5F8D8F88A5815088A788A5882328
:101F900059F61D8E36C08D8D282F30E0CE018C5A1B
:101FA0009F4FFC01E20FF31F8081882F90E0AA274A
:101FB00097FDA095BA2FBC01CD010E947D047B0145
:101FC0008C018D8D8F5F0E9480099B01AC01C8013F
:101FD000B7010E941702DC01CB019C01AD016AA18F
:101FE0007BA18CA19DA10E94EA01DC01CB018AA307
:101FF0009BA3ACA3BDA38D8D8F5F8D8F8FA18150CF
:102000008FA38FA1882339F6EC961FAEEC976AA1B7
:102010007BA18CA19DA120E030E040E050E00E9437
:10202000BD03882321F4F1E0EC96FFAFEC9781E04B
:10203000EC962FADEC978227882319F48EA18C3073
:1020400051F1EB961FAEEB97FE01FE966081718118
:102050008281938120E030E040E050E00E94BD03A7
:10206000882321F431E0EB963FAFEB9781E0EB96CC
:102070009FADEB978927882309F08AC06AA17BA1CD
:102080008CA19DA120E030E040E451E40E94BD031A
:10209000882309F07DC00E9434098BE790E00E94FC
:1020A000EE08FE01EE5BFF4F81E0808380E090E070
:1020B000AAEFB3E48B879C87AD87BE876B857C8551
:1020C0008D859E8520E030E04AEF54E40E9417029F
:1020D000DC01CB018F839887A987BA876F817885C8
:1020E00089859A8520E030E040E85FE30E944D0456
:1020F00088232CF481E090E09E838D833FC06F8124
:10210000788589859A8520E03FEF4FE757E40E9464
:10211000ED0318164CF56B857C858D859E8520E03A
:1021200030E040E251E40E941702DC01CB01BC0127
:10213000CD010E944100DC01CB019E838D830FC045
:1021400088EC90E09C838B838B819C810197F1F7D5
:102150009C838B838D819E8101979E838D838D814E
:102160009E81009769F714C06F81788589859A856B
:102170000E944100DC01CB019E838D838D819E8175
:102180009A83898389819A810197F1F79A83898358
:10219000FE01ED5BFF4F8081882349F08AA19BA15E
:1021A000ACA1BDA1B0588AA39BA3ACA3BDA3FE0163
:1021B000EE5BFF4F8081882309F071C08EA1A82FAC
:1021C000B0E0EA96BFAFAEAFEA97EA96EEADFFADEC
:1021D000EA97ED30F10509F441C0EA962EAD3FAD26
:1021E000EA972E3031054CF4EA968EAD9FADEA9712
:1021F0008C30910509F443C052C0EA96AEADBFAD34
:10220000EA97AE30B105C9F0EA96EEADFFADEA97B8
:10221000EF30F10509F043C06AAD7BAD8CAD9DADEB
:102220002AA13BA14CA15DA10E94EA01DC01CB01E6
:102230008AAF9BAFACAFBDAF32C06AAD7BAD8CADEA
:102240009DAD2AA13BA14CA15DA10E94B901DC0179
:10225000CB018AAF9BAFACAFBDAF21C06AAD7BAD48
:102260008CAD9DAD2AA13BA14CA15DA10E9417029E
:10227000DC01CB018AAF9BAFACAFBDAF10C06AAD84
:102280007BAD8CAD9DAD2AA13BA14CA15DA10E946F
:102290001103DC01CB018AAF9BAFACAFBDAF6AAD20
:1022A0007BAD8CAD9DAD20E030E040E050E00E9481
:1022B0001D0488235CF0FE01FE968AAD9BADACAD9B
:1022C000BDAD80839183A283B3830BC0FE01FE96D4
:1022D0008AAD9BADACADBDADB05880839183A28378
:1022E000B383FE01FE9660817181828193810E9499
:1022F000DB04DC01CB018EA79FA7A8ABB9AB6EA511
:102300007FA588A999A90E947D049B01AC01FE01CB
:10231000FE9660817181828193810E94B901DC0106
:10232000CB017C018D0184E00E943E09DC01CB01E0
:10233000BC01CD010E947D049B01AC01C801B70125
:102340000E941702DC01CB01BC01CD010E94DB041D
:10235000DC01CB018AA79BA7ACA7BDA78EA59FA533
:10236000A8A9B9A98EAB9FABA8AFB9AF8AA59BA509
:10237000ACA5BDA58AAB9BABACABBDAB19A618A6F3
:102380001FA237C089A5282F30E08FE090E08C0194
:10239000021B130B8EA99FA9A8ADB9AD2AE030E0AE
:1023A00040E050E0BC01CD010E949A13DC01CB015A
:1023B000282F205DCE018C599F4FFC01E00FF11FAB
:1023C00020838EA99FA9A8ADB9AD2AE030E040E0F6
:1023D00050E0BC01CD010E949A13DA01C9018EAB15
:1023E0009FABA8AFB9AF89A58F5F89A788A58F5F7D
:1023F00088A78EA99FA9A8ADB9AD0996A11DB11D49
:1024000083319105A105B10508F0BCCF88A5282F1F
:1024100030E08FE090E08C01021B130B8EA99FA986
:10242000A8ADB9AD2AE030E040E050E0BC01CD01FC
:102430000E949A13DC01CB01282F205DCE018C591C
:102440009F4FFC01E00FF11F208319A637C089A51B
:10245000282F30E083E090E08C01021B130B8AA947
:102460009BA9ACA9BDA92AE030E040E050E0BC0146
:10247000CD010E949A13DC01CB01282F205DCE01F3
:102480008C589F4FFC01E00FF11F20838AA99BA964
:10249000ACA9BDA92AE030E040E050E0BC01CD018C
:1024A0000E949A13DA01C9018AAB9BABACABBDABFE
:1024B00089A58F5F89A78FA18F5F8FA38AA99BA909
:1024C000ACA9BDA90996A11DB11D83319105A10536
:1024D000B10508F0BCCF8FA1282F30E083E090E059
:1024E0008C01021B130B8AA99BA9ACA9BDA92AE0E8
:1024F00030E040E050E0BC01CD010E949A13DC01C5
:10250000CB01282F205DCE018C589F4FFC01E00F9E
:10251000F11F2083FE01EC58FF4F8381803341F58A
:10252000FE01EC58FF4F8281803311F5FE01EC581B
:10253000FF4F81818033E1F4FE01EC58FF4F808131
:102540008033B1F4FE01EC58FF4F80E28383FE013B
:10255000EC58FF4F80E28283FE01EC58FF4F80E28F
:102560008183FE01EC58FF4F80E2808383E089A3E2
:10257000FE01EC58FF4F83818033E9F4FE01EC58F3
:10258000FF4F82818033B9F4FE01EC58FF4F818107
:10259000803389F4FE01EC58FF4F80E28383FE0113
:1025A000EC58FF4F80E28283FE01EC58FF4F80E23F
:1025B000818381E089A3FE01EC58FF4F8381803342
:1025C00091F4FE01EC58FF4F8281803361F4FE01EB
:1025D000EC58FF4F80E28383FE01EC58FF4F80E20E
:1025E000828381E089A3FE01EC58FF4F8381803311
:1025F00039F4FE01EC58FF4F80E2838381E089A328
:102600000E9434096AAD7BAD8CAD9DAD20E030E019
:1026100040E050E00E944D0488231CF48DE20E94AB
:1026200024078FE098A5891B89A71AC089A5282FA0
:1026300030E0CE018C599F4FFC01E20FF31F8081E7
:102640000E94240789A5282F30E0CE018C599F4F86
:10265000FC01E20FF31F80E3808389A58F5F89A7C8
:1026600089A5803118F389A1833019F08EE20E9488
:10267000240719A626C089A5282F30E0CE018C5842
:102680009F4FFC01E20FF31F8081803261F089A52A
:10269000282F30E0CE018C589F4FFC01E20FF31F32
:1026A00080810E94240789A5282F30E0CE018C5814
:1026B0009F4FFC01E20FF31F80E3808389A58F5FAA
:1026C00089A789A58430B8F218A280E090E0A0E044
:1026D000B0E08AA39BA3ACA3BDA319A21EA218A617
:1026E0001FA21F8EFE01ED5BFF4F1082FE01EE5B0D
:1026F000FF4F1082FBCA629FD001739FF001829F3F
:10270000E00DF11D649FE00DF11D929FF00D839F80
:10271000F00D749FF00D659FF00D9927729FB00D1D
:10272000E11DF91F639FB00DE11DF91FBD01CF0130
:102730001124089597FB092E05260ED057FD04D0CD
:1027400014D00AD0001C38F450954095309521954E
:102750003F4F4F4F5F4F0895F6F7909580957095D6
:1027600061957F4F8F4F9F4F0895A1E21A2EAA1BAC
:10277000BB1BFD010DC0AA1FBB1FEE1FFF1FA21731
:10278000B307E407F50720F0A21BB30BE40BF50B2E
:10279000661F771F881F991F1A9469F760957095B7
:1027A000809590959B01AC01BD01CF0108952F92BA
:1027B0003F924F925F926F927F928F929F92AF92D1
:1027C000BF92CF92DF92EF92FF920F931F93CF931E
:1027D000DF93CDB7DEB7CA1BDB0B0FB6F894DEBFB5
:1027E0000FBECDBF09942A88398848885F846E84DB
:1027F0007D848C849B84AA84B984C884DF80EE8025
:10280000FD800C811B81AA81B981CE0FD11D0FB62D
:10281000F894DEBF0FBECDBFED010895F894FFCF51
:10282000504C5553004D494E5553004D554C54494D
:10283000504C5900444956494445004D41544820A4
:102840004552524F520000000000000000000001FD
:10285000020203030303040404040404040405053E
:102860000505050505050505050505050505060616
:1028700006060606060606060606060606060606F8
:1028800006060606060606060606060606060707E6
:1028900007070707070707070707070707070707C8
:1028A00007070707070707070707070707070707B8
:1028B00007070707070707070707070707070707A8
:1028C0000707070707070707070707070707080896
:1028D0000808080808080808080808080808080878
:1028E0000808080808080808080808080808080868
:1028F0000808080808080808080808080808080858
:102900000808080808080808080808080808080847
:102910000808080808080808080808080808080837
:102920000808080808080808080808080808080827
:102930000808080808080808080808080808080817
:102940000808080808080808080808080808010214
:10295000030405060708090A0B0C0D0E0F10303092
:0E2960003030303030303030303030303030C9
:00000001FF
