:100000000C942A000C943F000C943F000C943F0089
:100010000C943F000C943F000C943F000C943F0064
:100020000C943F000C943F000C943F000C943F0054
:100030000C943F000C943F000C943F000C943F0044
:100040000C943F000C943F000C943F000C943F0034
:100050000C943F0011241FBECFE5D8E0DEBFCDBF1A
:1000600011E0A0E6B0E0E4E4F6E202C005900D92F3
:10007000AE3AB107D9F70E948C0D0C9420130C9462
:100080000000EF92FF920F931F937B018C0120E001
:1000900030E040E05FE40E941D0488238CF0C8013A
:1000A000B70120E030E040E05FE40E94B9010E9427
:1000B000DB049B01AC01205030404040504806C05A
:1000C000C801B7010E94DB049B01AC01B901CA0160
:1000D0001F910F91FF90EF900895A0E0B0E0E3E74B
:1000E000F0E00C94E912DC012B01FA019C919230B2
:1000F00008F439C1EB018881823008F433C19430AF
:1001000069F4843009F02FC111969C91119789816F
:10011000981709F428C1A6E8B0E025C1843009F495
:1001200021C18230A9F4923009F01DC19A01AD01BC
:1001300088E0EA010990AE01E90109929E0181502F
:10014000C1F7E201898111969C918923818308C1BD
:10015000923009F407C112962D903C901397EB0151
:100160008A819B811496AD90BD90CD90DC901797BD
:10017000EC80FD800E811F819101281B390BB90194
:1001800037FF04C066277727621B730B6032710547
:100190000CF061C0121613066CF537014801062EEB
:1001A00004C096948794779467940A94D2F721E0D8
:1001B00030E040E050E004C0220F331F441F551FC1
:1001C0006A95D2F721503040404050402E213F21C7
:1001D00040235123211531054105510521F021E02E
:1001E00030E040E050E079018A01E628F72808294C
:1001F00019293CC0232BD1F1260E371E35014601AB
:10020000062E04C096948794779467940A94D2F744
:1002100021E030E040E050E004C0220F331F441FD3
:10022000551F6A95D2F721503040404050402A2156
:100230003B214C215D21211531054105510521F05E
:1002400021E030E040E050E059016A01A628B728DB
:10025000C828D9280BC0821593052CF01C01AA24AC
:10026000BB24650103C0EE24FF24870111969C91F5
:10027000D20111968C91981709F445C0992339F051
:10028000A80197012A193B094C095D0906C0A6017E
:1002900095012E193F09400B510B57FD08C01182E3
:1002A0003382228224833583468357831DC081E0B5
:1002B00081833382228288279927DC01821B930B5A
:1002C000A40BB50B84839583A683B7830DC0220F3F
:1002D000331F441F551F24833583468357838281F0
:1002E000938101979383828324813581468157814D
:1002F000DA01C9010197A109B1098F5F9F4FAF4F83
:10030000BF4328F30BC0918333822282EA0CFB1C8B
:100310000C1D1D1DE482F5820683178383E0808314
:10032000248135814681578157FF1AC0C901AA2708
:1003300097FDA095BA2F81709070A070B0705695FF
:10034000479537952795822B932BA42BB52B848328
:100350009583A683B7838281938101969383828359
:10036000DF0101C0D201CD01CDB7DEB7E2E10C94CF
:100370000513A0E2B0E0EFEBF1E00C94F512698315
:100380007A838B839C832D833E834F835887E9E058
:10039000EE2EF12CEC0EFD1ECE010196B7010E944F
:1003A00053068E010F5E1F4FCE010596B8010E94C5
:1003B00053068A8991E089278A8BC701B801AE016B
:1003C000475E5F4F0E946D000E947E05A096E6E0AA
:1003D0000C941113A0E2B0E0E0EFF1E00C94F51200
:1003E00069837A838B839C832D833E834F835887D5
:1003F000F9E0EF2EF12CEC0EFD1ECE010196B701B7
:100400000E9453068E010F5E1F4FCE010596B80164
:100410000E945306C701B801AE01475E5F4F0E94BC
:100420006D000E947E05A096E6E00C941113A0E2F8
:10043000B0E0EDE1F2E00C94E91269837A838B83FA
:100440009C832D833E834F835887CE010196BE0146
:10045000675F7F4F0E945306CE010596BE016F5E17
:100460007F4F0E9453069985923088F089898230A7
:10047000C8F0943019F4823051F404C0843029F467
:10048000923081F486E890E0C6C0923049F420E0D2
:100490009A858A89981321E02A87CE010996BBC0E4
:1004A000823049F420E09A858A89981321E02A8BCA
:1004B000CE014196B0C02D843E844F8458886D880B
:1004C0007E888F88988CEE24FF248701AA24BB2481
:1004D000650140E050E060E070E0E0E0F0E0C10184
:1004E00081709070892BE9F0E60CF71C081D191D2E
:1004F0009A01AB012A0D3B1D4C1D5D1D80E090E073
:10050000A0E0B0E0E614F7040805190520F481E046
:1005100090E0A0E0B0E0BA01A901480F591F6A1F9E
:100520007B1FAA0CBB1CCC1CDD1C97FE08C081E005
:1005300090E0A0E0B0E0A82AB92ACA2ADB2A3196C6
:10054000E032F10549F0660C771C881C991C569422
:10055000479437942794C3CFFA85EA892B893C893D
:100560008B859C85280F391F2E5F3F4F17C0CA010E
:1005700081709070892B61F016950795F794E79438
:1005800080E090E0A0E0B0E8E82AF92A0A2B1B2BD3
:1005900076956795579547952F5F3F4F77FDE7CF46
:1005A0000CC0440F551F661F771F17FD4160EE0CEE
:1005B000FF1C001F111F21503040403090E05907B0
:1005C00090E0690790E4790760F32B8F3C8FDB01A3
:1005D000CA018F779070A070B07080349105A1052A
:1005E000B10561F447FD0AC0E114F10401051105EC
:1005F00029F0405C5F4F6F4F7F4F40781A8EFE1797
:1006000011F081E08A8F4D8F5E8F6F8F78A383E02A
:10061000898FCE0149960E947E05A096E2E10C9456
:100620000513A8E1B0E0E7E1F3E00C94F11269836F
:100630007A838B839C832D833E834F835887B9E0D5
:10064000EB2EF12CEC0EFD1ECE010196B7010E949F
:1006500053068E010F5E1F4FCE010596B8010E9412
:1006600053062985223008F47EC03989323010F4CF
:10067000B8017CC08A859A8989278A87243011F03D
:10068000223031F4231709F06EC066E870E06EC0C6
:10069000343039F41D861E861F86188A1C861B86F8
:1006A00004C0323021F484E08987B7015FC02B8514
:1006B0003C858B899C89281B390B3C872B87ED84D3
:1006C000FE840F851889AD88BE88CF88D88CEA143F
:1006D000FB040C051D0540F4EE0CFF1C001F111F50
:1006E000215030403C872B8720E030E040E050E054
:1006F00080E090E0A0E0B0E460E070E0EA14FB0489
:100700000C051D0540F0282B392B4A2B5B2BEA18D2
:10071000FB080C091D09B695A79597958795EE0CD2
:10072000FF1C001F111F6F5F7F4F6F31710531F785
:10073000DA01C9018F779070A070B0708034910594
:10074000A105B10561F427FD0AC0E114F10401051A
:10075000110529F0205C3F4F4F4F5F4F20782D87C8
:100760003E874F87588BBE01675F7F4FCB010E944A
:100770007E056896EAE00C940D13A8E1B0E0E3EC86
:10078000F3E00C94F51269837A838B839C832D8329
:100790003E834F83588789E0E82EF12CEC0EFD1E36
:1007A000CE010196B7010E9453068E010F5E1F4FC6
:1007B000CE010596B8010E9453068985823040F02B
:1007C0008989823028F0C701B8010E94CB0601C098
:1007D00081E06896E6E00C941113A8E1B0E0E3EF45
:1007E000F3E00C94F51269837A838B839C832D83C9
:1007F0003E834F83588789E0E82EF12CEC0EFD1ED6
:10080000CE010196B7010E9453068E010F5E1F4F65
:10081000CE010596B8010E9453068985823040F0CA
:100820008989823028F0C701B8010E94CB0601C037
:100830008FEF6896E6E00C941113A8E1B0E0E3E2D4
:10084000F4E00C94F51269837A838B839C832D8367
:100850003E834F83588789E0E82EF12CEC0EFD1E75
:10086000CE010196B7010E9453068E010F5E1F4F05
:10087000CE010596B8010E9453068985823040F06A
:100880008989823028F0C701B8010E94CB0601C0D7
:100890008FEF6896E6E00C941113A8E1B0E0E3E571
:1008A000F4E00C94F51269837A838B839C832D8307
:1008B0003E834F83588789E0E82EF12CEC0EFD1E15
:1008C000CE010196B7010E9453068E010F5E1F4FA5
:1008D000CE010596B8010E9453068985823040F00A
:1008E0008989823028F0C701B8010E94CB0601C077
:1008F00081E06896E6E00C941113A8E0B0E0E3E82C
:10090000F4E00C94F2129B01AC0183E08983DA01DC
:10091000C9018827B7FD83959927AA27BB27B82E39
:10092000211531054105510519F482E089833AC04A
:100930008823A9F0203080E0380780E0480780E86D
:10094000580729F460E070E080E09FEC30C0EE24AE
:10095000FF248701E21AF30A040B150B02C0790188
:100960008A018EE1C82ED12CDC82CB82ED82FE8200
:100970000F831887C801B7010E942F050197181629
:10098000190684F4082E04C0EE0CFF1C001F111F72
:100990000A94D2F7ED82FE820F831887C81AD90A0B
:1009A000DC82CB82BA82CE0101960E947E05289617
:1009B000E9E00C940E13ACE0B0E0E1EEF4E00C944E
:1009C000F91269837A838B839C83CE010196BE01E1
:1009D0006B5F7F4F0E9453068D81823061F18230C0
:1009E00050F1843021F48E81882351F12EC02F8163
:1009F000388537FD20C06E812F3131051CF066230C
:100A0000F9F023C08EE190E0821B930B29853A8593
:100A10004B855C8504C056954795379527958A95F3
:100A2000D2F76623B1F050954095309521953F4F10
:100A30004F4F5F4F0EC020E030E040E050E009C073
:100A40002FEF3FEF4FEF5FE704C020E030E040E0E2
:100A500050E8B901CA012C96E2E00C941513EF920C
:100A6000FF920F931F937B018C0180E0E81680E0DA
:100A7000F80681E0080780E0180788F48FEFE81691
:100A8000F1040105110531F028F088E090E0A0E0C4
:100A9000B0E017C080E090E0A0E0B0E012C080E0DD
:100AA000E81680E0F80680E0080781E0180728F0E3
:100AB00088E190E0A0E0B0E004C080E190E0A0E038
:100AC000B0E020E230E040E050E0281B390B4A0B58
:100AD0005B0B04C016950795F794E7948A95D2F7B7
:100AE000F701E257FF4F8081281B31094109510965
:100AF000C9011F910F91FF90EF900895DF92EF923F
:100B0000FF920F931F93FC01E480F580068117810B
:100B1000D1808081823048F480E090E0A0E1B0E0B4
:100B2000E82AF92A0A2B1B2BA5C0843009F49FC0A0
:100B3000823021F4EE24FF24870105C0E114F10482
:100B40000105110519F4E0E0F0E096C062817381BF
:100B50009FEF623879070CF05BC022E83FEF261B5D
:100B6000370B2A3131052CF020E030E040E050E036
:100B70002AC0B801A701022E04C076956795579543
:100B800047950A94D2F781E090E0A0E0B0E004C07D
:100B9000880F991FAA1FBB1F2A95D2F70197A10999
:100BA000B1098E219F21A023B1230097A105B10592
:100BB00021F081E090E0A0E0B0E09A01AB01282BA9
:100BC000392B4A2B5B2BDA01C9018F779070A0700B
:100BD000B07080349105A105B10539F427FF09C033
:100BE000205C3F4F4F4F5F4F04C0215C3F4F4F4F42
:100BF0005F4FE0E0F0E02030A0E03A07A0E04A07D5
:100C0000A0E45A0710F0E1E0F0E079018A0127C082
:100C10006038710564F5FB01E158FF4FD801C70149
:100C20008F779070A070B07080349105A105B105E8
:100C300039F4E7FE0DC080E490E0A0E0B0E004C02D
:100C40008FE390E0A0E0B0E0E80EF91E0A1F1B1F42
:100C500017FF05C016950795F794E794319687E03E
:100C600016950795F794E7948A95D1F705C0EE2479
:100C7000FF248701EFEFF0E06E2F679566276795F9
:100C8000902F9F77D794DD24D7948E2F8695492F68
:100C9000462B582F5D29B701CA011F910F91FF9074
:100CA000EF90DF900895FC01DB01408151812281AA
:100CB000622F6F7770E0221F2227221F9381892FD6
:100CC000880F822B282F30E0991F9927991F1196A2
:100CD0009C93119721153105A9F541155105610521
:100CE000710511F482E037C082E89FEF13969C9360
:100CF0008E9312979A01AB0167E0220F331F441FB6
:100D0000551F6A95D1F783E08C930DC0220F331FD6
:100D1000441F551F12968D919C911397019713961E
:100D20009C938E931297203080E0380780E048072C
:100D300080E4580758F314962D933D934D935C939C
:100D4000179708952F3F310579F441155105610535
:100D5000710519F484E08C93089564FF03C081E069
:100D60008C9312C01C9210C02F57304013963C93A6
:100D70002E93129783E08C9387E0440F551F661FD4
:100D8000771F8A95D1F7706414964D935D936D9398
:100D90007C93179708951F93DC01FB019C9192307F
:100DA00008F447C08081823008F443C0943051F485
:100DB00011961C91843099F58181682F70E0611B38
:100DC00071093FC0843021F0923031F48230B9F1A2
:100DD0008181882389F12DC011961C911197823051
:100DE000F1F081811817D9F412962D913C91139747
:100DF000828193818217930794F028173907BCF0FA
:100E000014968D919D910D90BC91A02D24813581DA
:100E100046815781281739074A075B0718F41123C1
:100E200041F00AC082179307A407B50740F41123C5
:100E300019F061E070E005C06FEF7FEF02C060E085
:100E400070E0CB011F910895DF93CF93CDB7DEB74C
:100E50002F970FB6F894DEBF0FBECDBF8F8781E00E
:100E600060E04FEF0E94A10A81E061E040E00E9453
:100E7000A10A82E06F850E94E50B81E062E04FEFFE
:100E80000E94A10A80E090E0A0E0B0E48B879C87FC
:100E9000AD87BE876B857C858D859E8520E030E0A3
:100EA0004AEF54E40E941702DC01CB018F8398873C
:100EB000A987BA876F81788589859A8520E030E097
:100EC00040E85FE30E944D0488232CF481E090E029
:100ED0009E838D833FC06F81788589859A8520E0C8
:100EE0003FEF4FE757E40E94ED0318164CF56B8572
:100EF0007C858D859E8520E030E040E251E40E94B3
:100F00001702DC01CB01BC01CD010E944100DC01D4
:100F1000CB019E838D830FC088EC90E09C838B83F4
:100F20008B819C810197F1F79C838B838D819E81BE
:100F300001979E838D838D819E81009769F714C0F0
:100F40006F81788589859A850E944100DC01CB01FB
:100F50009E838D838D819E819A83898389819A81E5
:100F60000197F1F79A83898381E062E040E00E9473
:100F7000A10A2F960FB6F894DEBF0FBECDBFCF915A
:100F8000DF910895DF93CF93CDB7DEB72F970FB6DC
:100F9000F894DEBF0FBECDBF8F8781E060E040E0F8
:100FA0000E94A10A81E061E040E00E94A10A82E083
:100FB0006F850E94E50B81E062E04FEF0E94A10A7D
:100FC00080E090E0A0E0B0E48B879C87AD87BE878F
:100FD0006B857C858D859E8520E030E04AEF54E46A
:100FE0000E941702DC01CB018F839887A987BA87FB
:100FF0006F81788589859A8520E030E040E85FE35D
:101000000E944D0488232CF481E090E09E838D8320
:101010003FC06F81788589859A8520E03FEF4FE753
:1010200057E40E94ED0318164CF56B857C858D8581
:101030009E8520E030E040E251E40E941702DC018E
:10104000CB01BC01CD010E944100DC01CB019E839C
:101050008D830FC088EC90E09C838B838B819C8177
:101060000197F1F79C838B838D819E8101979E83ED
:101070008D838D819E81009769F714C06F8178857B
:1010800089859A850E944100DC01CB019E838D8376
:101090008D819E819A83898389819A810197F1F755
:1010A0009A83898381E062E040E00E94A10A2F9642
:1010B0000FB6F894DEBF0FBECDBFCF91DF9108957C
:1010C000DF93CF93CDB7DEB72E970FB6F894DEBF80
:1010D0000FBECDBF80E090E0ACE1B2E48B879C878F
:1010E000AD87BE876B857C858D859E8520E030E051
:1010F0004AEF54E40E941702DC01CB018F839887EA
:10110000A987BA876F81788589859A8520E030E044
:1011100040E85FE30E944D0488232CF481E090E0D6
:101120009E838D833FC06F81788589859A8520E075
:101130003FEF4FE757E40E94ED0318164CF56B851F
:101140007C858D859E8520E030E040E251E40E9460
:101150001702DC01CB01BC01CD010E944100DC0182
:10116000CB019E838D830FC088EC90E09C838B83A2
:101170008B819C810197F1F79C838B838D819E816C
:1011800001979E838D838D819E81009769F714C09E
:101190006F81788589859A850E944100DC01CB01A9
:1011A0009E838D838D819E819A83898389819A8193
:1011B0000197F1F79A83898388E30E94C2078FE041
:1011C0000E94C20781E00E94C2072E960FB6F894D3
:1011D000DEBF0FBECDBFCF91DF910895DF93CF93D8
:1011E00000D00F92CDB7DEB79B838A8319820EC0E1
:1011F0008981282F30E08A819B81FC01E20FF31F57
:1012000080810E94240789818F5F89838981282FAB
:1012100030E08A819B81FC01E20FF31F80818823EB
:1012200039F70F900F900F90CF91DF910895DF93D2
:10123000CF9300D00F92CDB7DEB78A836B838B81BB
:10124000882319F48A81898303C08A81805C898319
:1012500089818068898389810E94C2070F900F90DD
:101260000F90CF91DF910895DF93CF93CDB7DEB785
:1012700081E00E94C207CF91DF910895DF93CF9361
:10128000CDB7DEB729970FB6F894DEBF0FBECDBF3E
:101290008D838D81882349F481E090E0A0E0B0E067
:1012A0008E839F83A887B9871CC08D8181500E943F
:1012B0003E09DC01CB012AE030E040E050E0BC0117
:1012C000CD010E948D12DC01CB0189839A83AB830F
:1012D000BC8389819A81AB81BC818E839F83A887DF
:1012E000B9878E819F81A885B985BC01CD012996DA
:1012F0000FB6F894DEBF0FBECDBFCF91DF9108953A
:10130000DF93CF930F92CDB7DEB7898389810E9497
:101310003E09DC01CB01BC01CD010E947D049B0193
:10132000AC0160E070E080E89FE30E941103DC0103
:10133000CB01BC01CD010F90CF91DF910895DF93D8
:10134000CF93CDB7DEB727970FB6F894DEBF0FBEA9
:10135000CDBF89836A834B838B81882309F075C055
:101360008981282F30E03F832E838E819F818230B8
:10137000910561F12E813F812330310534F48E8156
:101380009F818130910569F0D3C02E813F81233048
:10139000310589F18E819F818430910509F440C027
:1013A000C7C0AAE3B0E0EAE3F0E08081482F8A8179
:1013B000282F30E081E090E0022E02C0880F991FB4
:1013C0000A94E2F7809584238C93B2C0A7E3B0E03F
:1013D000E7E3F0E08081482F8A81282F30E081E028
:1013E00090E0022E02C0880F991F0A94E2F78095C0
:1013F00084238C939DC0A4E3B0E0E4E3F0E080811B
:10140000482F8A81282F30E081E090E0022E02C030
:10141000880F991F0A94E2F7809584238C9388C0E3
:10142000A1E3B0E0E1E3F0E08081482F8A81282F3A
:1014300030E081E090E0022E02C0880F991F0A94EC
:10144000E2F7809584238C9373C08B81813009F0FF
:101450006FC08981282F30E03D832C838C819D8152
:101460008230910551F12C813D812330310534F4D6
:101470008C819D818130910561F05AC02C813D8124
:101480002330310571F18C819D8184309105E9F122
:101490004FC0AAE3B0E0EAE3F0E08081482F8A8100
:1014A000282F30E081E090E0022E02C0880F991FC3
:1014B0000A94E2F7842B8C933BC0A7E3B0E0E7E308
:1014C000F0E08081482F8A81282F30E081E090E091
:1014D000022E02C0880F991F0A94E2F7842B8C9386
:1014E00027C0A4E3B0E0E4E3F0E08081482F8A81E4
:1014F000282F30E081E090E0022E02C0880F991F73
:101500000A94E2F7842B8C9313C0A1E3B0E0E1E3EB
:10151000F0E08081482F8A81282F30E081E090E040
:10152000022E02C0880F991F0A94E2F7842B8C9335
:1015300027960FB6F894DEBF0FBECDBFCF91DF91D7
:101540000895DF93CF93CDB7DEB727970FB6F89402
:10155000DEBF0FBECDBF89836A834B838B81882317
:1015600009F075C08981282F30E03F832E838E815A
:101570009F818230910561F12E813F8123303105B9
:1015800034F48E819F818130910569F0D3C02E8122
:101590003F812330310589F18E819F81843091050F
:1015A00009F440C0C7C0ABE3B0E0EBE3F0E08081FA
:1015B000482F8A81282F30E081E090E0022E02C07F
:1015C000880F991F0A94E2F7809584238C93B2C008
:1015D000A8E3B0E0E8E3F0E08081482F8A81282F7B
:1015E00030E081E090E0022E02C0880F991F0A943B
:1015F000E2F7809584238C939DC0A5E3B0E0E5E3FA
:10160000F0E08081482F8A81282F30E081E090E04F
:10161000022E02C0880F991F0A94E2F78095842356
:101620008C9388C0A2E3B0E0E2E3F0E08081482F31
:101630008A81282F30E081E090E0022E02C0880FDE
:10164000991F0A94E2F7809584238C9373C08B8151
:101650008F3F09F06FC08981282F30E03D832C83B4
:101660008C819D818230910551F12C813D81233007
:10167000310534F48C819D818130910561F05AC02F
:101680002C813D812330310571F18C819D81843025
:101690009105E9F14FC0ABE3B0E0EBE3F0E080810E
:1016A000482F8A81282F30E081E090E0022E02C08E
:1016B000880F991F0A94E2F7842B8C933BC0A8E310
:1016C000B0E0E8E3F0E08081482F8A81282F30E005
:1016D00081E090E0022E02C0880F991F0A94E2F781
:1016E000842B8C9327C0A5E3B0E0E5E3F0E0808194
:1016F000482F8A81282F30E081E090E0022E02C03E
:10170000880F991F0A94E2F7842B8C9313C0A2E3ED
:10171000B0E0E2E3F0E08081482F8A81282F30E0BA
:1017200081E090E0022E02C0880F991F0A94E2F730
:10173000842B8C9327960FB6F894DEBF0FBECDBFD7
:10174000CF91DF910895DF93CF9300D000D0CDB734
:10175000DEB789836A838981282F30E03C832B831D
:101760008B819C8182309105D9F02B813C81233083
:10177000310534F48B819C818130910561F01EC06C
:101780002B813C812330310581F08B819C81843019
:10179000910581F013C0EAE3F0E08A8180830EC0F6
:1017A000E7E3F0E08A81808309C0E4E3F0E08A8126
:1017B000808304C0E1E3F0E08A8180830F900F9082
:1017C0000F900F90CF91DF910895DF93CF9300D0CA
:1017D00000D0CDB7DEB789836A838981282F30E0B6
:1017E0003C832B838B819C8182309105D9F02B81A6
:1017F0003C812330310534F48B819C81813091050B
:1018000061F01EC02B813C812330310581F08B813A
:101810009C818430910581F013C0EBE3F0E08A8174
:1018200080830EC0E8E3F0E08A81808309C0E5E3AD
:10183000F0E08A81808304C0E2E3F0E08A81808363
:101840000F900F900F900F90CF91DF910895DF933D
:10185000CF9300D000D00F92CDB7DEB78A836B83D1
:101860008A81282F30E03D832C834C815D8142307A
:10187000510541F18C819D818330910534F42C8197
:101880003D812130310561F052C04C815D81433092
:10189000510551F18C819D8184309105B9F147C08A
:1018A000E9E3F0E08081282F30E08B81882F90E001
:1018B000A90102C0559547958A95E2F7CA01817042
:1018C000898335C0E6E3F0E08081282F30E08B810A
:1018D000882F90E0A90102C0559547958A95E2F7B7
:1018E000CA018170898323C0E3E3F0E08081282F5F
:1018F00030E08B81882F90E0A90102C05595479573
:101900008A95E2F7CA018170898311C0E0E3F0E0B3
:101910008081282F30E08B81882F90E0A90102C0C0
:10192000559547958A95E2F7CA0181708983898127
:101930000F900F900F900F900F90CF91DF9108951F
:10194000DF93CF93CDB7DEB7A6970FB6F894DEBF7F
:101950000FBECDBFCE0142969BA38AA3EEE8F1E075
:10196000FDA3ECA3F0E1FEA3ECA1FDA100808CA1FE
:101970009DA101969DA38CA3EAA1FBA100828AA14F
:101980009BA101969BA38AA39EA191509EA3EEA129
:10199000EE2351F787E1898B188AAFC084E068890C
:1019A00040E00E94A10A1F869CC08F85982F9C5FF3
:1019B00084E0692F0E94270C882309F08FC08F854F
:1019C000282F30E08889482F50E0220F331F220F44
:1019D000331FCE010196820F931F840F951FFC01C8
:1019E00071968081898B80E090E0A0E0B0E48B87E5
:1019F0009C87AD87BE876B857C858D859E8520E025
:101A000030E04AEF54E40E941702DC01CB018F83DF
:101A10009887A987BA876F81788589859A8520E01C
:101A200030E040E85FE30E944D0488232CF481E01D
:101A300090E09E838D833FC06F81788589859A85EC
:101A400020E03FEF4FE757E40E94ED0318164CF5F6
:101A50006B857C858D859E8520E030E040E251E4F9
:101A60000E941702DC01CB01BC01CD010E944100A4
:101A7000DC01CB019E838D830FC088EC90E09C83BA
:101A80008B838B819C810197F1F79C838B838D8164
:101A90009E8101979E838D838D819E81009769F73A
:101AA00014C06F81788589859A850E944100DC0188
:101AB000CB019E838D838D819E819A8389838981C9
:101AC0009A810197F1F79A8389838F85982F9C5F7C
:101AD00084E0692F0E94270C8823B9F38F858F5FDC
:101AE0008F878F85843008F460CF84E068894FEF5A
:101AF0000E94A10A88898F5F888B8889843008F4C6
:101B00004DCF89898150A6960FB6F894DEBF0FBEDF
:101B1000CDBFCF91DF910895EF92FF920F931F9366
:101B2000DF93CF93CDB7DEB7C257D0400FB6F8944E
:101B3000DEBF0FBECDBF84E06FE00E94A30B84E048
:101B40006FEF0E94E50B82E06FEF0E94A30B81E034
:101B50006FEF0E94A30B0E9460081DAA1CAA80E0E0
:101B600090E0A0E0B0E088AB99ABAAABBBAB80E063
:101B700090E0A0E0B0E08CA79DA7AEA7BFA718A6F5
:101B800019A61AA61BA61CA21DA21EA21FA218A25D
:101B900019A21AA21BA21C8E1D8E1E8E1F8E188EBD
:101BA00080E090E0A0E0B0E08C8B9D8BAE8BBF8B93
:101BB0001B8A1A8A80E1FE01F696DF01282F1D920A
:101BC0002A95E9F7CE018A5B9F4F20E1FC01DF01F6
:101BD000322F1D923A95E9F7CE018A5A9F4FE0962F
:101BE0009FAF8EAFE0978EE991E0E2969FAF8EAF08
:101BF000E29790E1E3969FAFE397E296AEADBFAD7B
:101C0000E2970C90E296EEADFFADE2973196E29648
:101C1000FFAFEEAFE297E096AEADBFADE0970C92AE
:101C2000E096EEADFFADE0973196E096FFAFEEAFF8
:101C3000E097E396FFADE397F150E396FFAFE397AC
:101C4000E3962FADE3972223C1F6FE01EA59FF4F39
:101C500080E38083FE01EA59FF4F80E38183FE0128
:101C6000EA59FF4F80E38283FE01EA59FF4F80E388
:101C70008383198A1A8E198E188A0FC08889282F93
:101C800030E0CE018A5A9F4FFC01E20FF31F8081A2
:101C90000E94240788898F5F888B8889803170F340
:101CA00003C00E94A00C888F888D8D3049F0888DEC
:101CB0008C3031F0888D8E3019F0888D8F3089F717
:101CC0000E943409888DA82FB0E0AE96BFAFAEAFAA
:101CD000AE97AE96EEADFFADAE97ED30F10539F1B2
:101CE000AE962EAD3FADAE972E30310544F4AE9694
:101CF0008EAD9FADAE978C309105F1F021C0AE96C0
:101D0000AEADBFADAE97AE30B10561F0AE96EEAD03
:101D1000FFADAE97EF30F10599F480E690E00E94B8
:101D2000EE080EC085E690E00E94EE0809C08BE642
:101D300090E00E94EE0804C084E790E00E94EE0864
:101D400080E090E0AAEFB3E48B879C87AD87BE87E5
:101D50006B857C858D859E8520E030E04AEF54E4DC
:101D60000E941702DC01CB018F839887A987BA876D
:101D70006F81788589859A8520E030E040E85FE3CF
:101D80000E944D0488232CF481E090E09E838D8393
:101D90003FC06F81788589859A8520E03FEF4FE7C6
:101DA00057E40E94ED0318164CF56B857C858D85F4
:101DB0009E8520E030E040E251E40E941702DC0101
:101DC000CB01BC01CD010E944100DC01CB019E830F
:101DD0008D830FC088EC90E09C838B838B819C81EA
:101DE0000197F1F79C838B838D819E8101979E8360
:101DF0008D838D819E81009769F714C06F817885EE
:101E000089859A850E944100DC01CB019E838D83E8
:101E10008D819E819A83898389819A810197F1F7C7
:101E20009A8389830E94340950C00E94A00C8A8B37
:101E30008A898E3041F48DA9882329F48DE20E948D
:101E4000240781E08DAB8A898A3031F48EE20E94CA
:101E5000240789898F5F898B89898130E1F48A8998
:101E60008B3099F18A898A3080F58A898A3069F1C4
:101E7000898D282F30E0CE018A5B9F4FFC01E20F55
:101E8000F31F8A8980838A89805D0E942407898D57
:101E90008F5F898F1AC08A898B30B9F08A898A301E
:101EA000A0F48A898C3089F08A8D282F30E0CE0109
:101EB000C696FC01E20FF31F8A8980838A89805DC0
:101EC0000E9424078A8D8F5F8A8F8A898B3009F060
:101ED000ACCF1F8631C08F85282F30E0CE01C6964B
:101EE000FC01E20FF31F8081E82EFF2400E010E0E8
:101EF0008A8D81500E943E099B01AC01C801B70147
:101F00000E948D12DC01CB01BC01CD010E947D0439
:101F10009B01AC016C897D898E899F890E94EA01B1
:101F2000DC01CB018C8B9D8BAE8BBF8B8F858F5F44
:101F30008F878A8D81508A8F8A8D882361F61F86CC
:101F400036C08F85282F30E0CE018A5B9F4FFC0181
:101F5000E20FF31F8081882F90E0AA2797FDA095BC
:101F6000BA2FBC01CD010E947D047B018C018F85BD
:101F70008F5F0E9480099B01AC01C801B7010E94DC
:101F80001702DC01CB019C01AD016C897D898E8932
:101F90009F890E94EA01DC01CB018C8B9D8BAE8B6B
:101FA000BF8B8F858F5F8F87898D8150898F898DBA
:101FB000882339F66C897D898E899F8920E030E0FD
:101FC00040E050E00E94BD03882349F4888D8C30A6
:101FD00031F48BE790E00E94EE0881E08CAB8DA994
:101FE000882349F08C899D89AE89BF89B0588C8B34
:101FF0009D8BAE8BBF8B8CA9882309F071C0888D17
:10200000282F30E0AC963FAF2EAFAC97AC968EAD9C
:102010009FADAC978D30910509F441C0AC96AEAD43
:10202000BFADAC97AE30B1054CF4AC96EEADFFADA4
:10203000AC97EC30F10509F443C052C0AC962EAD1C
:102040003FADAC972E303105C9F0AC968EAD9FAD4B
:10205000AC978F30910509F043C06CA57DA58EA586
:102060009FA52C893D894E895F890E94EA01DC0188
:10207000CB018CA79DA7AEA7BFA732C06CA57DA53D
:102080008EA59FA52C893D894E895F890E94B90143
:10209000DC01CB018CA79DA7AEA7BFA721C06CA573
:1020A0007DA58EA59FA52C893D894E895F890E94BB
:1020B0001702DC01CB018CA79DA7AEA7BFA710C05C
:1020C0006CA57DA58EA59FA52C893D894E895F892C
:1020D0000E941103DC01CB018CA79DA7AEA7BFA76F
:1020E0006CA57DA58EA59FA520E030E040E050E0E6
:1020F0000E941D0488234CF08CA59DA5AEA5BFA50C
:1021000088AB99ABAAABBBAB09C08CA59DA5AEA50E
:10211000BFA5B05888AB99ABAAABBBAB68A979A9EE
:102120008AA99BA90E94DB04DC01CB0188A399A3A7
:10213000AAA3BBA368A179A18AA19BA10E947D0447
:102140009B01AC0168A979A98AA99BA90E94B90140
:10215000DC01CB017C018D0184E00E943E09DC01A1
:10216000CB01BC01CD010E947D049B01AC01C801E3
:10217000B7010E941702DC01CB01BC01CD010E9416
:10218000DB04DC01CB018C8F9D8FAE8FBF8F88A1CC
:1021900099A1AAA1BBA188A799A7AAA7BBA78C8D23
:1021A0009D8DAE8DBF8D8CA39DA3AEA3BFA31B8EB3
:1021B0001A8E198E37C08B8D282F30E08FE090E07B
:1021C0008C01021B130B88A599A5AAA5BBA52AE023
:1021D00030E040E050E0BC01CD010E94AC12DC01D7
:1021E000CB01282F205DCE018A5A9F4FFC01E00FC2
:1021F000F11F208388A599A5AAA5BBA52AE030E0F8
:1022000040E050E0BC01CD010E94AC12DA01C901EE
:1022100088A799A7AAA7BBA78B8D8F5F8B8F8A8D65
:102220008F5F8A8F88A599A5AAA5BBA50996A11D30
:10223000B11D83319105A105B10508F0BCCF8A8D90
:10224000282F30E08FE090E08C01021B130B88A553
:1022500099A5AAA5BBA52AE030E040E050E0BC016A
:10226000CD010E94AC12DC01CB01282F205DCE01F4
:102270008A5A9F4FFC01E00FF11F20831B8E37C04D
:102280008B8D282F30E083E090E08C01021B130B34
:102290008CA19DA1AEA1BFA12AE030E040E050E0BA
:1022A000BC01CD010E94AC12DC01CB01282F205DC6
:1022B000CE018A599F4FFC01E00FF11F20838CA1B2
:1022C0009DA1AEA1BFA12AE030E040E050E0BC01FA
:1022D000CD010E94AC12DA01C9018CA39DA3AEA36B
:1022E000BFA38B8D8F5F8B8F898D8F5F898F8CA123
:1022F0009DA1AEA1BFA10996A11DB11D833191057C
:10230000A105B10508F0BCCF898D282F30E083E00E
:1023100090E08C01021B130B8CA19DA1AEA1BFA16B
:102320002AE030E040E050E0BC01CD010E94AC1258
:10233000DC01CB01282F205DCE018A599F4FFC0183
:10234000E00FF11F2083FE01EA59FF4F83818033A4
:1023500041F5FE01EA59FF4F8281803311F5FE01FC
:10236000EA59FF4F81818033E1F4FE01EA59FF4FC2
:1023700080818033B1F4FE01EA59FF4F80E283830C
:10238000FE01EA59FF4F80E28283FE01EA59FF4FC6
:1023900080E28183FE01EA59FF4F80E2808383E07F
:1023A0008B8BFE01EA59FF4F83818033E9F4FE01F4
:1023B000EA59FF4F82818033B9F4FE01EA59FF4F99
:1023C0008181803389F4FE01EA59FF4F80E28383E3
:1023D000FE01EA59FF4F80E28283FE01EA59FF4F76
:1023E00080E2818381E08B8BFE01EA59FF4F83817C
:1023F000803391F4FE01EA59FF4F8281803361F40A
:10240000FE01EA59FF4F80E28383FE01EA59FF4F44
:1024100080E2828381E08B8BFE01EA59FF4F83814A
:10242000803339F4FE01EA59FF4F80E2838381E073
:102430008B8B0E9434096CA57DA58EA59FA520E0FD
:1024400030E040E050E00E944D0488231CF48DE20F
:102450000E9424078FE09A8D891B8B8F1AC08B8D69
:10246000282F30E0CE018A5A9F4FFC01E20FF31F64
:1024700080810E9424078B8D282F30E0CE018A5A5C
:102480009F4FFC01E20FF31F80E380838B8D8F5FF2
:102490008B8F8B8D803118F38B89833019F08EE20E
:1024A0000E9424071B8E26C08B8D282F30E0CE0182
:1024B0008A599F4FFC01E20FF31F8081803261F047
:1024C0008B8D282F30E0CE018A599F4FFC01E20FFF
:1024D000F31F80810E9424078B8D282F30E0CE01CE
:1024E0008A599F4FFC01E20FF31F80E380838B8D9D
:1024F0008F5F8B8F8B8D8430B8F21A8A80E090E0EA
:10250000A0E0B0E08C8B9D8BAE8BBF8B1B8A188EAE
:102510001A8E198E198A1DAAC7CB629FD001739F8C
:10252000F001829FE00DF11D649FE00DF11D929F6F
:10253000F00D839FF00D749FF00D659FF00D9927AE
:10254000729FB00DE11DF91F639FB00DE11DF91FD2
:10255000BD01CF011124089597FB092E05260ED049
:1025600057FD04D014D00AD0001C38F45095409583
:10257000309521953F4F4F4F5F4F0895F6F7909557
:102580008095709561957F4F8F4F9F4F0895A1E281
:102590001A2EAA1BBB1BFD010DC0AA1FBB1FEE1FDD
:1025A000FF1FA217B307E407F50720F0A21BB30B28
:1025B000E40BF50B661F771F881F991F1A9469F7A4
:1025C00060957095809590959B01AC01BD01CF0100
:1025D00008952F923F924F925F926F927F928F92C7
:1025E0009F92AF92BF92CF92DF92EF92FF920F93A2
:1025F0001F93CF93DF93CDB7DEB7CA1BDB0B0FB6AC
:10260000F894DEBF0FBECDBF09942A883988488868
:102610005F846E847D848C849B84AA84B984C884FE
:10262000DF80EE80FD800C811B81AA81B981CE0FF5
:10263000D11D0FB6F894DEBF0FBECDBFED010895DA
:04264000F894FFCF3C
:10264400504C5553004D494E5553004D554C54492B
:10265400504C5900444956494445004D4154482082
:102664004552524F520000000000000000000001DB
:10267400020203030303040404040404040405051C
:1026840005050505050505050505050505050606F4
:1026940006060606060606060606060606060606D6
:1026A40006060606060606060606060606060707C4
:1026B40007070707070707070707070707070707A6
:1026C4000707070707070707070707070707070796
:1026D4000707070707070707070707070707070786
:1026E4000707070707070707070707070707080874
:1026F4000808080808080808080808080808080856
:102704000808080808080808080808080808080845
:102714000808080808080808080808080808080835
:102724000808080808080808080808080808080825
:102734000808080808080808080808080808080815
:102744000808080808080808080808080808080805
:1027540008080808080808080808080808080808F5
:1027640008080808080808080808080808080102F2
:10277400030405060708090A0B0C0D0E0F10303070
:0E2784003030303030303030303030303030A7
:00000001FF
